:10000000C9EF01F000000000046ED8CF05F0E0CF8A
:1000100006F00001E9CF0CF0EACF07F0E1CF08F0DD
:10002000E2CF09F0D9CF0AF0DACF0BF0F3CF12F01C
:10003000F4CF13F0FACF14F0F5CF15F0F6CF16F099
:10004000F7CF17F000C00EF001C00FF002C010F0A3
:1000500003C011F0F2AA30EF00F0F2B4AAEF00F002
:100060009DAA36EF00F09EBA6FEF00F0A3AA3CEF16
:1000700000F0A4BA90EF00F00EC000F00FC001F045
:1000800010C002F011C003F00CC0E9FF07C0EAFF86
:10009000078E08C0E1FF09C0E2FF0AC0D9FF0BC00C
:1000A000DAFF12C0F3FF13C0F4FF14C0FAFF15C04B
:1000B000F5FF16C0F6FF17C0F7FF045006C0E0FFBB
:1000C00005C0D8FF10009EAAFED7ABCF19F0AECF67
:1000D00001F019A202D0AB98AB8870EF00F0F3D713
:1000E00001C0C2F0036AC3511E0FE96E000E032067
:1000F000EA6EC2C0EFFFC32BC2510D0802E1C36B11
:100100005F809E9A3CEF00F0A4AAFED76BCF19F057
:100110006ECF01F019A202D06B986B8891EF00F0BE
:10012000F3D701C0C4F0036AC551470FE96E000E52
:100130000320EA6EC4C0EFFFC52BC551170802E2C9
:10014000170EC56FC4510D0802E1C56B5F82A49AFA
:100150003CEF00F0932BD8B4942B945305E19351CA
:10016000180802E3868001D086909451000807E2C7
:10017000FF0A03E19351F30802E2946B936B5FA8CB
:1001800008D0828A982B9851050803E2986B5F98F3
:10019000829AD76A050ED66EF294F2943CEF00F084
:1001A00041542B434D47463D310D000041544430EE
:1001B000353333363833313139393B0D0000535242
:1001C000410D000041542B434D47443D310D00008B
:1001D00042756E7520626563657264696D2062693F
:1001E0006C67696E206F6C73756E0000D190C150A2
:1001F000C00B0F09C16EC290B098C69A010EC66EB0
:10020000000EC76EC50ED56ECD6A000ECA6E000E0A
:10021000CB6EB16A070EB46E9750976E0D0E006EDE
:10022000002EFED7B450A19CB56AD26A600ED36E80
:10023000400E9B6ED350000E926EFF0E936E940E86
:10024000946EFF0E956EF00E966EFF0E976E040E76
:10025000986E896A8A6A8B6A8C6A8D6A8E6A8F6ADE
:1002600048EF02F0010EEA6E080EE96EEF500EE064
:10027000050E016E006A002EFED7012EFBD72E0E52
:10028000006E002EFED700D0EF2EF2D7120009002C
:10029000F5520DE0F6CF07F1F7CF08F1F5509EA823
:1002A000FED7AD6E07C1F6FF08C1F7FFF0D762EFCA
:1002B00002F00900F5520DE0F6CF07F1F7CF08F193
:1002C000F550A4A8FED76D6E07C1F6FF08C1F7FF71
:1002D000F0D71200A00EF66E010EF76EEADF080EE0
:1002E0000101076FFA0E086F0001BCDF0101072F43
:1002F000F9D700017BEF02F094928B92080E016E09
:1003000000D00000018E10D0019E010109330001D0
:10031000D8B08B82D8A08B92018C06D0019C012E84
:10032000F4D700D000008B82840EE96EE92EFED750
:1003300000D0000001BEE8D701BCF0D71200EF5298
:100340000FE0EACF08F1E9CF07F1EFCF09F1D4DFF1
:1003500008C1EAFF07C1E9FFE92AD8B4EA2AEFD7C2
:100360008CEF02F0EF5210E0EACF08F1E9CF07F18D
:10037000EF50A4A8FED76D6E08C1EAFF07C1E9FFE0
:10038000E92AD8B4EA2AEED71200A4A8FED76D6EE7
:100390001200F86AD09E078EFE0E006E030E016EEC
:1003A000020EE96E000EEA6EEE6A002EFDD7012EF7
:1003B000FBD7EA6AE96A600ED36E400E9B6ED3509B
:1003C000196A7E86A00EAF6E010E7F6EA60EAC6E11
:1003D000900EAB6E190E6F6EA20E6C6E900E6B6E61
:1003E00094928B825F845F965F98986B0D0EBF6FBF
:1003F000C36BC56BC150C00B0F09C16E070EB46E45
:10040000300E996F350E9A6F9B6F340E9C6F390EBC
:100410009D6F310E9E6F350E9F6F330EA06F360E9F
:10042000A16F330EA26F390EA36FA46B410EA56F9F
:10043000540EA66F440EA76F300EA86F350EA96F2D
:10044000330EAA6FAB6F360EAC6F380EAD6F330E36
:10045000AE6F310EAF6FB06F390EB16FB26F3B0E32
:10046000B36FB46B410EB56F540EB66F2B0EB76FF2
:10047000430EB86F4D0EB96F470EBA6F530EBB6F78
:100480003D0EBC6FBD6B220EBE6FC06BC16BAED696
:10049000F188F098F28A9D8AA38AF294C00EF21233
:1004A000809480920C0E0101076FFA0E086F000114
:1004B000D9DE0101072FF9D7BE0EF66E010EF76ED9
:1004C0000001E5D6C40EF66E010EF76EF2DE0D0EDB
:1004D000A4A8FED76D6E0A0EA4A8FED76D6E040EFA
:1004E0000101076FFA0E086F0001BCDE0101072F42
:1004F000F9D70001EFD6040E0101076FFA0E086F5D
:100500000001B0DE0101072FF9D75FA04DD0EA6AE4
:100510001E0EE96E000113D70D0E0101096F0001D7
:10052000EBDE0A0E0101096F0001E6DE5F908094A8
:10053000280E0101076FFA0E086F000193DE01011A
:10054000072FF9D7EA6AB50EE96E00010BDF220E1C
:100550001CDFEA6A990EE96E05DF220E16DF0D0E2A
:1005600014DFC80E0101086F00017CDEEA6A1E0E6E
:10057000E96EF8DE0D0EA4A8FED76D6ED00EF66EF5
:10058000010EF76E96DEC80E0101086F00016ADEEB
:100590001A0EFBDE280E0101076FFA0E086F00012C
:1005A00061DE0101072FF9D7B0D70300000000007A
:1005B000000000000000000000000000000000003B
:1005C000000000000000000000000000000000002B
:1005D000000000000000000000000000000000001B
:1005E000000000000000000000000000000000000B
:020000040030CA
:0E0000000008180CC301800000000000010081
:00000001FF
