:100000004DEF00F00D0A2055415254312054455314
:1000100054200D0A00000D0A20554152543220543C
:10002000455354200D0A0000EA6A070EE96EEF50AE
:100030000EE00F0E016E006A002EFED7012EFBD7D8
:100040008F0E006E002EFED70000EF2EF2D78BEF42
:1000500000F00900F5520DE0F6CF07F0F7CF08F0F9
:10006000F5509EA8FED7AE6E07C0F6FF08C0F7FF9A
:10007000F0D790EF00F00900F5520DE0F6CF07F051
:10008000F7CF08F0F550A4A8FED7A96E07C0F6FF79
:1000900008C0F7FFF0D795EF00F0F86AD09E0E0188
:1000A000550EA76EAA0EA76EFF91060EF66F050EEF
:1000B000CB6F550EA76EAA0EA76EFF81046A7E86CF
:1000C000E10EB06E040E7F6EA60EAD6E900EAC6E9D
:1000D0007C86E10EAB6E040E7D6EA60EA86E900EB1
:1000E0009C6E066A056AFF0E0F01486FC29CC29E95
:1000F0004951E00B1F09496FD26AD16AFF0E486F60
:10010000C29CC29E4951E00B1F09496F9394640E33
:10011000076E000189D7040EF66E000EF76E99D7B0
:0E012000160EF66E000EF76EA6D7FFD7030080
:087FF800ACF71DFFFFF8DFF1FB
:00000001FF
;PIC18F25J50
;CRC=8B93  CREATED="26-Ara-15 16:42"
